:100000000C947C010C94A4010C94A4010C94331066
:100010000C9433100C9433100C94A4010C94A40190
:100020000C94A4010C94A4010C94A4010C94A401BC
:100030000C94A4010C94A4010C94A4010C94A401AC
:100040000C94C4110C94A4010C94B8140C94EA14EC
:100050000C94A4010C94A4010C94A4010C94A4018C
:100060000C94A4010C94A401100B260B3C0B520B16
:10007000680B7E0B940BB10BB60BBB0BC00BC50B07
:10008000CA0BCF0B41542B435553443D312C222AEC
:1000900031303123220041542B43504D533D2253E4
:1000A0004D222C22534D222C22534D220041542B01
:1000B000434E4D493D322C30004552524F523A206A
:1000C00053494D39303020646F65736E2774206159
:1000D0006E737765722E20436865636B20706F774F
:1000E000657220616E642073657269616C2070694D
:1000F0006E7320696E2047534D2E6370700041541B
:100100002B4950523D393630300D003131353230C7
:10011000300041542B4950523D393630300D0035B6
:10012000373630300041542B4950523D393630304B
:100130000D0033383430300041542B4950523D3992
:100140003630300D0031393230300041542B4950B7
:10015000523D393630300D00393630300041542BA5
:100160004950523D393630300D003438303000417E
:10017000542B4950523D393630300D003234303036
:100180000041542B4950523D393630300D00313248
:10019000303000547279696E6720746F20666F7218
:1001A00063652074686520626175642D7261746591
:1001B00020746F20393630300A00446F6E27742067
:1001C00075736520626175647261746520313135C3
:1001D000323030207769746820536F6674776172AB
:1001E000652053657269616C2E200A4175746F6DCC
:1001F00061746963616C6C79206368616E676564C2
:1002000020617420393630302E0041542B434D4745
:10021000443D0041542B434D47523D0041542B4334
:100220004D474C3D22414C4C220041542B434D47FD
:100230004C3D225245432052454144220041542B1B
:10024000434D474C3D2252454320554E5245414473
:10025000220041542B434D47533D2200446F6E27EB
:10026000742073656E64206D657373616765206CBF
:100270006F6E676572207468616E2031363020635E
:1002800068617261637465727300000000080002A7
:10029000010000030407000000000000000001024C
:1002A0000408102040800102040810200102040804
:1002B00010200404040404040404020202020202E2
:1002C00003030303030300000000230026002900AA
:1002D00000000000250028002B0000000000240082
:1002E00027002A003E087808550CDA0C680D6E0DC0
:1002F000740D480F1A15E40C11241FBECFEFD8E07F
:10030000DEBFCDBF13E0A0E0B1E0E2ECF7E302C056
:1003100005900D92AE3AB107D9F726E0AEEAB3E008
:1003200001C01D92AD37B207E1F712E0C6EFD2E08F
:1003300004C02297FE010E948718C43ED107C9F766
:100340000E9420180C94D41B0C9400000C94771B72
:100350000C947F1B1F93CF93DF93C4EFD2E01991CE
:1003600061E0812F0E94DB1261E0812F0E94141353
:1003700082E0CC3FD80799F7DF91CF911F91089584
:10038000E8ECF3E0119284E0E836F807D9F7E4EB03
:10039000F3E0119283E0E83CF807D9F70895CF9293
:1003A000DF92EF92FF920F931F93CF93DF9380E042
:1003B00090E00E94A6018F3F39F48BE090E00E940C
:1003C000A6018F3F91F42CC006E011E0C0E0D0E020
:1003D000CE010E94A601833281F3F80181938F013F
:1003E0002196CB30D105A1F7E8CF06E111E0CBE0B3
:1003F000D0E080ECC82E87E2D82E89E0E82EF12CE0
:10040000CE010E94A601811112C0F801C082D182E2
:10041000E282F38221960C5F1F4FCF30D10581F726
:100420008FE090E00E94A6018F3F69F415C0282F4D
:1004300030E0A0E6BAEE0E948B18F8016083718369
:1004400082839383E7CF04E411E0CFE0D0E0CE01D4
:100450000E94A601833259F48EE190E00E94A60129
:100460008F3FC9F008E614E0CEE1D0E00FC0F801FC
:1004700081938F012196CE31D10549F7EDCFF80157
:1004800081938F012196CD32D10529F0CE010E94B2
:10049000A6018332A1F7DF91CF911F910F91FF90B9
:1004A000EF90DF90CF900895EF920F931F9340E865
:1004B00055E260E070E08FE794E00E94E60993E087
:1004C000E92E07E113E024E630E044EF51E063E574
:1004D00071E08FE794E00E948C0924E630E044EF5D
:1004E00051E068E571E08FE794E00E948C0924E612
:1004F00030E044EF51E062E671E08FE794E00E9463
:100500008C098FE794E00E941B0C24E630E044EF56
:1005100051E06CE671E08FE794E00E948C09109244
:100520004C0580914401882341F046E251E064E4A7
:1005300071E08EEA93E00E947A0D8091680488232E
:1005400059F046E251E068E674E08EEA93E01F91CC
:100550000F91EF900C947A0D1F910F91EF900895E9
:1005600080E38093110180931201809313018093A3
:10057000140161E08DE00E94141368EB7BE080E0E1
:1005800090E00E943D1261E08CE00E94141361E053
:100590008BE00E94141361E08AE00E94141361E072
:1005A00089E00C941413DF92EF92FF920F931F9344
:1005B000CF93DF937C0180914C0581114BC081E08A
:1005C00080934C0564E870E08DE794E00E94970CFE
:1005D0002FE731E044E650E068E873E18FE794E00C
:1005E0000E946009823091F562E270E081E894E057
:1005F0000E94CD1A8C01EC01219662E270E0CE01DE
:100600000E94CD1A009711F1FC011082FE010190A9
:100610000020E9F73197EC1BFD0BE03A10F4AE0136
:100620000EC00F551F4FF801D0801082AE01B701E8
:100630008EEA93E00E947A0DF801D082A801B701FA
:100640008EEA93E00E947A0D81E001C08FEF109254
:100650004C0501C08FEFDF91CF911F910F91FF905B
:10066000EF90DF9008954F925F926F927F928F92FA
:100670009F92AF92BF92CF92DF92EF92FF920F9331
:100680001F93CF93DF93CDB7DEB7C85BD1090FB609
:10069000F894DEBF0FBECDBF5C018B016A011982E9
:1006A0001A821B821C82FE0135968CE9DF011D92A5
:1006B0008A95E9F76EE973E0CE018D549F4F0E9451
:1006C0000E17C5010E94F31AB601C5010E941A1B3C
:1006D0007C018A159B0509F01FC365E871E00E9443
:1006E0001A1B0097F9F0FC0184818E3681F40E9478
:1006F000B00281E08093B3030E940E126093AF03B7
:100700007093B0038093B1039093B2030BC0109227
:10071000B3030E94B0024AE851E0B8018EEA93E0C8
:100720000E947A0D6FE971E0C7010E941A1B0097C1
:1007300009F49AC04C01F6E08F0E911C56E1652E2B
:1007400051E0752E6BE0A62EB12C44E050E0B401D0
:10075000CE0101960E94DF1ACE0101960E94A61AD0
:10076000582E492E682FC5010E94A80120E63AEEB6
:10077000A52DB42D0E949A18D3016D937D938D936E
:100780009D933D01B4E08B0E911CEFEFAE1ABE0AB3
:10079000FFE0AF16B104C9F665EA71E0CE018D54F1
:1007A0009F4F0E942417A12CB12CC5010B960E94CB
:1007B000A6014AE0682FCE018F559F4F0E943C173B
:1007C0002FEFA21AB20A4AE0B501CE0183559F4F1E
:1007D0000E94691766EC71E0CE0189559F4F0E9417
:1007E0000E17BE0163557F4FCE0189559F4F0E9462
:1007F000C81760ED71E00E94DB17BE016F557F4F97
:100800000E94C81763ED71E00E94DB17BC01CE01A6
:100810008D549F4F0E94C117CE0189559F4F0E9452
:10082000A016CE0183559F4F0E94A016CE018F5572
:100830009F4F0E94A01684E0A816B10409F0B5CF1E
:1008400020E030E040EA50E0BE016F5F7F4FCE0114
:100850008D549F4F0E94F517AE014F5F5F4FB80157
:100860008EEA93E00E947A0D6BED71E0C7010E9461
:100870001A1B009789F0DC0115968C918E36B1F029
:1008800061E088E00E94141361E087E00E94141385
:1008900061E086E00E9414135701B5E0AB0EB11C75
:1008A000470130E3732E41E3642E15C060E088E019
:1008B0000E94141360E087E00E94141360E0E9CF07
:1008C000C401EFEF8E1A9E0ADC012C912B3289F0C5
:1008D000BFEFAB1ABB0AF70101900020E9F7EE1950
:1008E000FF093597C4018E199F098E179F0740F3A2
:1008F00053C043E050E061EE71E00E94FD1A892B85
:1009000039F7F501329780819FEC980F943070F59C
:100910009091B3039923E1F065EE71E0CE018D541F
:100920009F4F0E94241720E030E044E650E0BE01D3
:100930006F5F7F4FCE018D549F4F0E94F517AE0120
:100940004F5F5F4FB8018EEA93E00E947A0DC0CFEF
:10095000F5012081992787FD9095FC01E052FF4F1A
:100960002E3611F46082B4CF7082B2CF9BEC980F18
:10097000933008F0ADCFD5012C91992787FD909544
:10098000FC01EC53FD4F2E3611F460E001C061E034
:1009900080810E9414139CCF6EE072E0C7010E9418
:1009A0001A1B892B09F471C064E172E0CE018D54E9
:1009B0009F4F0E94241724EF822E22E0922EA12C1A
:1009C000B12CF40181914F010E944A134AE0B50114
:1009D000892BB9F4CE0189559F4F0E94691766ECA7
:1009E00071E0CE018F559F4F0E940E17BE016955D1
:1009F0007F4FCE018F559F4F0E94C81769E272E06A
:100A000016C0CE0189559F4F0E94691766EC71E0B0
:100A1000CE018F559F4F0E940E17BE0169557F4F23
:100A2000CE018F559F4F0E94C81760E372E00E946D
:100A3000DB17BC01CE018D549F4F0E94C117CE0120
:100A40008F559F4F0E94A016CE0189559F4F0E943F
:100A5000A016FFEFAF1ABF0A28E0A216B10409F0F2
:100A6000B0CF20E030E040EA50E0BE016F5F7F4F42
:100A7000CE018D549F4F0E94F517AE014F5F5F4F1F
:100A8000B8018EEA93E00E947A0D68E372E0C70134
:100A90000E941A1B892B09F468C06EE372E0CE0134
:100AA0008D549F4F0E942417A12CB12CC5010B9689
:100AB0000E94A6014AE0682FCE018F559F4F0E94E9
:100AC0003C178FEFA81AB80A4AE0B501CE0183554A
:100AD0009F4F0E94691766EC71E0CE0189559F4FC8
:100AE0000E940E17BE0163557F4FCE0189559F4F5F
:100AF0000E94C81760ED71E00E94DB17BE016F55C0
:100B00007F4F0E94C81763E572E00E94DB17BC01AB
:100B1000CE018D549F4F0E94C117CE0189559F4F22
:100B20000E94A016CE0183559F4F0E94A016CE01B1
:100B30008F559F4F0E94A016A4E0AA16B10409F099
:100B4000B5CF20E030E040EA50E0BE016F5F7F4F5C
:100B5000CE018D549F4F0E94F517AE014F5F5F4F3E
:100B6000B8018EEA93E00E947A0D6AE572E0C7014F
:100B70000E941A1B009729F14C01B6E08B0E911CC4
:100B80003601A12CB12CD4016D914D01633271F06D
:100B9000BAE0AB16B10451F0F30161933F01C50116
:100BA0000E94A801FFEFAF1ABF0AEDCFF601019036
:100BB0000020E9F7CF01019763E28C199D090E949B
:100BC000A80161E672E0C7010E941A1B892B81F11E
:100BD000D8010D900020E9F7AD0141505109401BAB
:100BE000510BB80184E491E00E94DF1A5801C12C36
:100BF000D12CD8010D900020E9F7CD010197801B81
:100C0000910BC816D90628F063E20F960E94A8013E
:100C10000FC0BEE0CB16D104B9F3F50161915F01BD
:100C2000C6010F960E94A801FFEFCF1ADF0AE1CF9D
:100C300068E672E0C7010E941A1B892B81F1F80156
:100C400001900020E9F7AF0141505109401B510BC1
:100C5000B80188E694E00E94DF1A5801C12CD12C1B
:100C6000F80101900020E9F7CF010197801B910B5B
:100C7000C816D90628F063E24E960E94A8010FC05C
:100C8000FEE0CF16D104B9F3D5016D915D01C60127
:100C90004E960E94A801BFEFCB1ADB0AE1CF6FE6A8
:100CA00072E0C7010E941A1B892B29F063E28EE1D2
:100CB00090E00E94A80168E772E0C7010E941A1B39
:100CC000892B61F0C8010E94D302813039F04EE7D0
:100CD00052E0B8018EEA93E00E947A0D61EB72E077
:100CE000C7010E941A1B8C010097B1F0DC015696D7
:100CF0001C926AEB72E08DE794E00E948A0CB801C6
:100D0000675F7F4F8DE794E00E947D0C63E270E0A7
:100D10008DE794E00E94CB0CCE018D549F4F0E9432
:100D2000A016C854DF4F0FB6F894DEBF0FBECDBF7C
:100D3000DF91CF911F910F91FF90EF90DF90CF90B7
:100D4000BF90AF909F908F907F906F905F904F90EB
:100D500008950E94AA0126E040E855E260E070E0B4
:100D60008CED95E00E9456140E94CF0168EB7BE069
:100D700080E090E00E943D120C945402CF92DF92EA
:100D8000EF92FF920F931F93CF93DF938091B30362
:100D90008823B9F18DE00E944A13019789F444EC4D
:100DA00052E064E471E08EEA93E00E947A0D60E024
:100DB0008CE00E94141368EB7BE080E090E05FC061
:100DC0000E940E120091AF031091B0032091B10365
:100DD0003091B203061717072807390708F089C0B2
:100DE00089E00E944A13892B09F083C04EED52E03E
:100DF00064E471E08EEA93E00E947A0D1092B303EE
:100E000075C044E050E069ED72E081E191E00E943C
:100E1000FD1A892B31F48DE00E944A13892BA9F524
:100E200065C005EF12E0C1E1D1E08991813329F479
:100E300060E0F80180810E9414130F5F1F4FF1E002
:100E4000C531DF0791F760ED77E080E090E00E9428
:100E50003D1205EF12E0C1E1D1E08991803329F420
:100E600061E0F80180810E9414130F5F1F4FF1E0D1
:100E7000C531DF0791F768EE73E080E090E00E94F3
:100E80003D1260E08DE00E94141364E670E080E0A3
:100E900090E00E943D1262E08EEA93E00E94DB0D3A
:100EA000C82F18160CF072CF70EAE72E08EC13E08A
:100EB00024E144EB53E0682F8EEA93E00E94410E58
:100EC0006C2F8EEA93E00E94160F46E051E064EB2F
:100ED00073E0C8010E943303DF91CF911F910F91FE
:100EE000FF90EF90DF90CF900C94C0010E94B00271
:100EF000CCCF0E940E120091AF031091B00320914D
:100F0000B1033091B203061717072807390770F5A8
:100F10008AE00E944A13892B49F50E940E12009123
:100F20002201109123012091240130912501600FAD
:100F3000711F821F931F6093AF037093B003809360
:100F4000B1039093B20389E00E944A13019709F01C
:100F50009CCF60E089E00E94141360ED77E080E0B0
:100F600090E00E943D1261E08AE08DCF0E940E1257
:100F70000091AF031091B0032091B1033091B203FF
:100F8000061717072807390770F58BE00E944A13E8
:100F9000892B49F50E940E1200911E0110911F012C
:100FA0002091200130912101600F711F821F931F3A
:100FB0006093AF037093B0038093B1039093B20337
:100FC0008AE00E944A13019709F05FCF60E08AE04F
:100FD0000E94141360ED77E080E090E00E943D12E3
:100FE00061E08BE050CF0E940E12C0901601D090AD
:100FF0001701E0901801F09019010091AF031091D2
:10100000B0032091B1033091B203C00ED11EE21E95
:10101000F31EC616D706E806F90608F036CF8CE0B0
:101020000E944A13892B09F030CF0E940E120091C2
:101030001A0110911B0120911C0130911D01600FBC
:10104000711F821F931F6093AF037093B00380934F
:10105000B1039093B2038BE00E944A13019709F009
:1010600014CF60E08BE00E94141360ED77E080E025
:1010700090E00E943D1261E08CE005CF63E070E0FB
:1010800087E794E00C945B0C0F931F93CF93DF934F
:10109000EC018EE193E099838883FE01E553FF4FD5
:1010A00081E090E0918380838E0104521F4F20E005
:1010B00043E062E0C8010E9406114AE050E0B80136
:1010C000CE0185509F4FDF91CF911F910F910C94CE
:1010D000590DFC01EF52FF4F2081222331F002967F
:1010E0000E941A1B21E0892B09F420E0822F089529
:1010F00063E070E089E794E00C945B0C6F927F9260
:101100008F929F92AF92BF92CF92DF92EF92FF9217
:101110000F931F93CF93DF93EC018C010E521F4F5F
:10112000F8018081811134C0CE0184529F4F0E940A
:10113000DC0F9E0129523F4F790118161906F4F071
:101140000E940E12F701C080D180E280F3806C19FA
:101150007D098E099F093497C080D180E12CF12C44
:101160006C157D058E059F0598F032978081FE01F4
:10117000E80FF11D128284E0782E0BC00E940E123F
:10118000F701608371838283938381E0F801808318
:10119000712CF8018081813009F05EC07E01FCED88
:1011A000EF0EF11CC7010E94DC0F682E882349F066
:1011B0000E940E12FE01E952FF4F60837183828309
:1011C000938300E010E06E0121EDC20ED11C5E01A0
:1011D0003FECA30EB11C601609F1F6018081883C3A
:1011E000B8F4F50180809180C7010E944E0FF40190
:1011F0008083F50180819181019691838083F6013E
:1012000080818F5F8083FE01E80FF11D128203C091
:10121000C7010E944E0F0F5F1F4FDDCF0E940E12BD
:10122000FE01E952FF4F0081118122813381601B51
:10123000710B820B930B32970081118120E030E01B
:10124000601771078207930738F034978081C80FC1
:10125000D11D1A8277247394872DDF91CF911F912E
:101260000F91FF90EF90DF90CF90BF90AF909F9045
:101270008F907F906F900895CF93DF93EC01FC01E6
:10128000EE52FF4F10823196718360833296518304
:1012900040830E940E12FE01E952FF4F608371836A
:1012A000828393831A823897CE010296918380833A
:1012B0003296108286529F4FDF91CF910C94C10FCE
:1012C0000F931F93CF93DF93EC0189010E943C0998
:1012D000CE010E947E088823D9F3813041F4B80101
:1012E000CE010E946908882321F082E003C084E0D7
:1012F00001C083E0DF91CF911F910F910895CF93AB
:10130000DF93EC010E943C09CE010E947E088823F5
:10131000D9F3DF91CF9108954F925F926F927F92B0
:101320008F929F92AF92BF92CF92DF92EF92FF92F5
:101330000F931F93CF93DF931F92CDB7DEB72C018E
:101340006B015A014901F12C2FEF3C018CED680E25
:10135000711CFE14F9F0FF2031F064EF71E080E0C1
:1013600090E00E943D12B601C3010E94DD15A40168
:10137000B501C2010E947F09813041F4B801C20168
:101380000E946908811105C020E001C02FEFF3948D
:10139000E0CF21E048E853E168EE73E0C201298321
:1013A0000E947F092981822F0F90DF91CF911F9199
:1013B0000F91FF90EF90DF90CF90BF90AF909F90F4
:1013C0008F907F906F905F904F9008954F925F92B3
:1013D0006F927F928F929F92AF92BF92CF92DF9245
:1013E000EF920F931F93CF93DF936C012A013B0180
:1013F000411582EC580781E06807710561F46AEBDA
:1014000071E08CED95E00E94CB1550E8452E55E239
:10141000552E612C712C4601EDEC8E0E911C81E055
:10142000F4018083E601C452DF4FB301A201CE0173
:101430000E943611F601E153FF4FC60102969183D7
:10144000808381E090E034979183808345E0E42EAF
:1014500007E113E024E630E044EF51E060E073E0A0
:10146000C6010E948C09813009F058C055C0FFEFB9
:10147000AF1ABF0A88E0A816B10409F45FC0F501ED
:101480003197E730F10508F468C140EB54E060E0C3
:1014900070E0CE010E94361164E670E080E090E0DA
:1014A0000E943D1235E0E32E07E113E024E630E030
:1014B00044EF51E060E073E0C6010E948C09813086
:1014C000B1F663E073E0CE010E94BE152AE030E081
:1014D000B301A201CE010E943E1664EC71E0CE0180
:1014E0000E94BE1564EF71E080E090E00E943D1222
:1014F000B301A201CE010E94361164E670E080E0E3
:1015000090E00E943D1224E630E044EF51E060E0BC
:1015100073E0C6010E948C0980E068C095E0E92E66
:1015200007E113E024E630E044EF51E060E073E0CF
:10153000C6010E948C09882309F40CC163E971E09B
:101540008CED95E00E94CB15A12CB12CF5013197C3
:10155000E730F10508F460C040EB54E060E070E073
:10156000CE010E94361168EE73E080E090E00E94A8
:101570003D126EE871E08CED95E00E94CB1561E8BC
:1015800071E0CE010E949B1568EE73E080E090E070
:101590000E943D1240E855E260E070E0CE010E94FA
:1015A000361168EE73E080E090E00E943D1225E085
:1015B000E22E07E113E024E630E044EF51E060E082
:1015C00073E0C6010E948C09813009F4A5CF69EB54
:1015D00070E08CED95E00E94CB15EFEFAE1ABE0ADD
:1015E000F8E0AF16B10409F0B1CF81E0F401108248
:1015F00090E0919581959109DF91CF911F910F9185
:10160000EF90DF90CF90BF90AF909F908F907F90A2
:101610006F905F904F900895EC5CFF4F0C9485188D
:1016200040E659E060E070E0CE010E94361168EEBD
:1016300073E080E090E00E943D126CE771E08CED79
:1016400095E00E94CB156FE671E09BCF40EC52E134
:1016500060E070E0CE010E94361168EE73E080E039
:1016600090E00E943D126AE671E08CED95E00E94E8
:10167000CB156DE571E085CF40E855E260E070E0A4
:10168000CE010E94361168EE73E080E090E00E9487
:101690003D1268E571E08CED95E00E94CB156BE49E
:1016A00071E06FCF40E05BE460E070E0CE010E944B
:1016B000361168EE73E080E090E00E943D1265E430
:1016C00071E08CED95E00E94CB1568E371E059CF95
:1016D00040E056E960E070E0CE010E94361168EE0D
:1016E00073E080E090E00E943D1262E371E08CEDD7
:1016F00095E00E94CB1565E271E043CF40E051EEEA
:1017000060E070E0CE010E94361168EE73E080E088
:1017100090E00E943D126FE171E08CED95E00E9437
:10172000CB1562E171E02DCF40E052EC61E070E05A
:10173000CE010E94361168EE73E080E090E00E94D6
:101740003D126BE071E08CED95E00E94CB156EEFE1
:1017500070E017CFA12CB12C92CEE55CFF4F0C941A
:10176000851840E659E060E070E093CE40EC52E12D
:1017700060E070E08ECE40E855E260E070E089CE37
:1017800040E05BE460E070E084CE40E056E960E079
:1017900070E07FCE40E051EE60E070E07ACE40E055
:1017A00052EC61E070E075CE6F927F928F929F92C3
:1017B000AF92BF92CF92DF92EF92FF920F931F935F
:1017C000CF93DF93EC016B015A014901F12C8FEFAC
:1017D0003E019CED690E711CFE14F1F0FF2031F00A
:1017E00064EF71E080E090E00E943D12B601C30119
:1017F0000E94CB15A401B501CE010E947F09813062
:1018000039F4B801CE010E946908882311F003C0A1
:101810008FEFF394E1CF81E0DF91CF911F910F9192
:10182000FF90EF90DF90CF90BF90AF909F908F9000
:101830007F906F900895CF92DF92EF920F931F9356
:10184000CF93DF936C01EC01C353DF4F888181118B
:1018500022C081E0888362E0E62E07E113E022E304
:1018600030E048EE53E06DEA70E0C6010E94D40B10
:101870007AE0E72E0BE013E028EE33E048EE53E089
:1018800066E970E0C6010E94D40B91E0813009F056
:1018900090E0188201C09FEF892FDF91CF911F91B7
:1018A0000F91EF90DF90CF90089563E070E08BE7A9
:1018B00094E00C945B0CFC01718360830895CF93DA
:1018C000DF93EC0102960E9444088AE293E0998338
:1018D000888386E393E09B838A83DF91CF91089589
:1018E0002AE233E0FC01318320832EE133E03383AD
:1018F000228382529F4F0C94AD10DC01ED91FC913C
:10190000369720813181280F391FC90184529F4F9A
:101910000C94BE15DC01ED91FC913697208131814C
:10192000280F391FC90184529F4F0C94BE15DC014A
:10193000ED91FC91369720813181280F391FC90123
:1019400084529F4F0C949B15DC01ED91FC913697CE
:1019500020813181280F391FC90184529F4F0C9477
:10196000DD15DC01ED91FC91369720813181280F46
:10197000391FC90184529F4F0C94CB15DC01ED91A6
:10198000FC91369720813181280F391FC90184527B
:101990009F4F0C94DD15DC01ED91FC913697208171
:1019A0003181280F391F4AE050E0C90184529F4F0E
:1019B0000C94881663E070E085E895E00E945B0C6B
:1019C0008DE794E00C945F0C8DE794E00C94700C20
:1019D000DC01ED91FC91369720813181280F391F70
:1019E000C90184529F4F0E944E0F0895DC01ED9172
:1019F000FC91369720813181280F391FC90184520B
:101A00009F4F0C94DC0FAF92BF92CF92DF92EF9278
:101A1000FF920F931F93CF93DF938C017B016A0199
:101A20008DE794E00E94F60C181619063CF064E667
:101A300070E080E090E00E943D12F2CFC0E0D0E084
:101A4000560181E0A81AB1088DE794E00E94F60CD7
:101A500018161906ECF4CA15DB05D4F4D801ED917B
:101A6000FC91369780819181800F911F84529F4F06
:101A70000E944E0F18162CF4F701EC0FFD1F808307
:101A8000219661E070E080E090E00E943D12DCCFA2
:101A9000F701EC0DFD1D31971082CE01DF91CF9142
:101AA0001F910F91FF90EF90DF90CF90BF90AF907C
:101AB0000895FC017183608328EE33E0DA010E940F
:101AC0009A18628373838483958381E08287089563
:101AD00063E070E087E895E00C945B0C63E070E0F5
:101AE00089E895E00C945B0C63E070E08BE895E08E
:101AF0000C945B0CEF92FF920F931F93CF93DF93A5
:101B000000D0CDB7DEB77B018A01FA010190002039
:101B1000E9F73197E41BF50BE03AF10530F06CE59D
:101B200072E08CED95E00E94CB158AE189831A82E0
:101B300062E572E08DE794E00E94970CB7018DE7B3
:101B400094E00E947D0C6AE773E08DE794E00E94C8
:101B5000BE0C28E333E044EF51E068E873E18FE71F
:101B600094E00E946009823011F08FEF19C0B80133
:101B70008DE794E00E947D0CBE016F5F7F4F8DE783
:101B800094E00E94A40C2AE333E048E853E168E5BE
:101B90007BE18FE794E00E946009823031F781E0B9
:101BA00010924C050F900F90DF91CF911F910F91E4
:101BB000FF90EF900895CF9380914C0581115EC006
:101BC00081E080934C05613099F028F06230B1F4E7
:101BD0006CE172E00FC06DE372E08DE794E00E946B
:101BE000B10C60E473E08CED95E00E94DD1506C059
:101BF0006AE272E08DE794E00E94B10C4CED55E092
:101C000068E873E18FE794E00E943C0967E173E0C4
:101C10008FE794E00E94690881110CC08FE794E07F
:101C20000E947E08882391F3813021F0843009F1ED
:101C3000C0E020C061E573E08FE794E00E9469088E
:101C4000882369F06AE370E081E894E00E94CD1A8D
:101C5000009729F001960E94A61AC82F01C0C0E083
:101C600044E150E064E170E08FE794E00E947F0976
:101C700001C0CEEF10924C058C2F01C08FEFCF9199
:101C800008956F927F929F92AF92BF92CF92DF9210
:101C9000EF92FF920F931F93CF93DF93C62F6A01AA
:101CA000622E662309F4B1C080914C058111AFC04A
:101CB00081E080934C05FA01108263E172E08DE7C8
:101CC00094E00E94970C6C2F70E08DE794E00E94E6
:101CD000CB0C28E533E044E650E068E873E18FE799
:101CE00094E00E946009833039F0843009F485C0A3
:101CF000823009F085C00FC067E173E08FE794E0A0
:101D00000E94690881117CC06EE573E08FE794E062
:101D10000E94690875C064E673E08FE794E00E9452
:101D2000690881110BC061E773E08FE794E00E94BE
:101D30006908882331F022E0922E05C099249394FB
:101D400002C093E0992E6CE270E081E894E00E947A
:101D5000CD1AEC01229662E270E0CE010E94CD1A0B
:101D60005C010097E1F0FC011082FE01019000206F
:101D7000E9F73197EC1BFD0BE61528F4BE01C6010F
:101D80000E94D81A0CC0712CA30141505109BE0108
:101D9000C6010E94C41AF601E60DF71D10826AE022
:101DA00070E0C50101960E94CD1A009751F1EC0137
:101DB00021966DE070E0CE010E94CD1A009711F0DF
:101DC000FC011082FE0101900020E9F73197EC1B25
:101DD000FD0BEE1528F4BE01C8010E94D81A11C0EF
:101DE000F12CA70141505109BE01C8010E94C41A3B
:101DF000F801EE0DFF1D108204C08EEF982E01C079
:101E0000912C10924C05892D03C08DEF01C08FEFEE
:101E1000DF91CF911F910F91FF90EF90DF90CF90C6
:101E2000BF90AF909F907F906F900895CF93C62FF3
:101E3000662349F180914C05811127C081E0809390
:101E40004C056AE072E08DE794E00E94970C6C2FDD
:101E500070E08DE794E00E94CB0C27E133E042E391
:101E600050E068E873E18FE794E00E9460098230F7
:101E700021F0843021F080E003C081E001C08EEFCA
:101E800010924C0503C08DEF01C08FEFCF910895E4
:101E900063E070E08DE895E00C945B0C2091D10537
:101EA0003091D20528173907B9F490918F058091A8
:101EB0009005981789F0E0918F05F0E0EF56FA4F02
:101EC000808120918F0530E02F5F3F4F2F733327A4
:101ED00020938F0590E008958FEF9FEF08951F9353
:101EE000CF93DF93DC015C968D919C915D97009779
:101EF00049F481E090E013969C938E93129780E0D2
:101F000090E03BC05196ED91FC91529750962C91E8
:101F10005097322F30951FB75E964C915E9741FBDC
:101F2000772770F941FD6095F8944081772311F08F
:101F3000422B01C043234083EC012197F1F748E095
:101F4000508160FF02C0522B01C053235083EC012B
:101F50002197F1F76695415099F78081772311F029
:101F6000832301C0822B80831FBF5C968D919C913F
:101F70005D970197F1F781E090E0DF91CF911F919C
:101F8000089508952091D1053091D2052817390779
:101F900081F490918F0580919005981751F0E09110
:101FA0008F05F0E0EF56FA4F8081992787FD9095D5
:101FB00008958FEF9FEF08952091D1053091D205BC
:101FC0002817390771F48091900520918F0590E0D2
:101FD000805C9F4F821B910960E470E00E94301882
:101FE000089580E090E00895E091D105F091D20548
:101FF000E817F90769F4A389B4899C9185898095CC
:1020000089238C931092D2051092D10581E0089516
:1020100080E00895CF93DF93EC018A8D9B8D892B0F
:10202000F1F08091D1059091D2058C179D07B9F000
:10203000009711F00E94F40F8E8D8E7F8E8F10927C
:10204000900510928F05D093D205C093D105EB89EE
:10205000FC8980819D89892B808381E001C080E09B
:10206000DF91CF9108951F920F920FB60F92112416
:102070002F933F934F935F936F937F938F939F9390
:10208000AF93BF93EF93FF93E091D105F091D20509
:10209000309709F451C0868DA685B785958581FF57
:1020A00004C08C91892329F447C08C91892309F0BD
:1020B00043C0A389B4899C918589809589238C9399
:1020C000868997890197F1F7208D318DA685B7858F
:1020D000758558E040E0C9010197F1F7842F90E041
:1020E00095958795482F6C91672309F0406851506A
:1020F00091F7868D81FD40958091900590E0019645
:102100008F73992720918F05281749F0A09190058A
:10211000B0E0AF56BA4F4C938093900503C0868DC4
:102120008160868F828D938D0197F1F7A389B489A1
:102130008C919589892B8C93FF91EF91BF91AF91F1
:102140009F918F917F916F915F914F913F912F91CF
:102150000F900FBE0F901F90189520E833E0FC0100
:10216000318320830C94F40F1F93CF93DF93EC0102
:10217000162F6E8D6695617081E06827812F0E9411
:10218000141361E0812F0E94DB12812F90E0FC018B
:10219000E256FD4FE491E88BFC01EE54FD4FE491D3
:1021A000F0E0EE0FFF1FE053FD4F859194919A8B65
:1021B000898BDF91CF911F9108951F93CF93DF9368
:1021C000EC01162F60E0812F0E94DB128E8D81FDC5
:1021D00004C061E0812F0E9414131C87812F90E0BE
:1021E000FC01E256FD4FE491ED87FC01EE54FD4FFA
:1021F000E491F0E0EE0FFF1FEA53FD4F85919491BB
:102200009F878E87DF91CF911F910895FF920F9343
:102210001F93CF93DF93EC01F62E522F1B821A826D
:1022200008EE13E020E030E00C831D832E833F8313
:1022300080E893E0998388831F8A1E8A198E188EFE
:102240001B8E1A8E1D8E1C8E8E8D8E7F50FB81F9FB
:102250008E8F642FCE010E94B4106F2DCE01DF91BE
:10226000CF911F910F91FF900C94DD10CF93DF93CE
:10227000EC019A01AB011B8E1A8E198E188E1F8AE3
:102280001E8A60E079E08DE390E00E946618C90143
:102290002430310520F0B9016350710902C061E0BA
:1022A00070E07D8F6C8FEC85E63108F068C0B90175
:1022B000769567956431710518F06351710902C014
:1022C00061E070E07F8B6E8B069718F0C90105976F
:1022D00002C081E090E0998F888FC901880F991F13
:1022E000820F931F96958795969587958D309105CA
:1022F00010F00C9702C081E090E09B8F8A8F2091B4
:102300006800E83050F091E0EE3008F490E081E0B1
:1023100001C0880F9A95EAF701C084E0822B809370
:1023200068002C85283038F02E3040F0263148F4F3
:102330008CE690E008C08DE690E005C08BE690E06A
:1023400002C080E090E09C8B8B8B283030F481E0E1
:1023500001C0880F2A95EAF70DC0822F90E02E3039
:1023600010F4089701C00E9791E001C0990F8A956B
:10237000EAF7892F8D8B8C8D9D8D0197F1F7CE011A
:10238000DF91CF910C940A101F920F920FB60F920B
:1023900011242F933F938F939F93AF93BF9380917B
:1023A000D4059091D505A091D605B091D70530916F
:1023B000D30523E0230F2D3720F40196A11DB11D75
:1023C00005C026E8230F0296A11DB11D2093D30559
:1023D0008093D4059093D505A093D605B093D705E7
:1023E0008091D8059091D905A091DA05B091DB05CF
:1023F0000196A11DB11D8093D8059093D905A09396
:10240000DA05B093DB05BF91AF919F918F913F911A
:102410002F910F900FBE0F901F9018952FB7F89423
:102420006091D4057091D5058091D6059091D7051E
:102430002FBF08953FB7F8948091D8059091D905A2
:10244000A091DA05B091DB0526B5A89B05C02F3F0A
:1024500019F00196A11DB11D3FBF6627782F892F66
:102460009A2F620F711D811D911D42E0660F771F2B
:10247000881F991F4A95D1F708958F929F92AF9226
:10248000BF92CF92DF92EF92FF926B017C010E948C
:102490001A124B015C01C114D104E104F104F1F002
:1024A0000E942F180E941A12681979098A099B093B
:1024B000683E73408105910570F321E0C21AD1088E
:1024C000E108F10888EE880E83E0981EA11CB11C7B
:1024D000C114D104E104F10429F7DDCFFF90EF909E
:1024E000DF90CF90BF90AF909F908F900895789499
:1024F00084B5826084BD84B5816084BD85B5826009
:1025000085BD85B5816085BDEEE6F0E080818160A6
:102510008083E1E8F0E010828081826080838081A6
:1025200081608083E0E8F0E0808181608083E1EB7E
:10253000F0E0808184608083E0EBF0E08081816066
:102540008083EAE7F0E0808184608083808182601C
:102550008083808181608083808180688083109205
:10256000C1000895833081F028F4813099F08230E1
:10257000A1F008958730A9F08830B9F08430D1F403
:10258000809180008F7D03C0809180008F77809341
:102590008000089584B58F7702C084B58F7D84BD97
:1025A00008958091B0008F7703C08091B0008F7D37
:1025B0008093B0000895CF93DF9390E0FC01E25642
:1025C000FD4F2491FC01EE54FD4F8491882349F185
:1025D00090E0880F991FFC01E652FD4FA591B49140
:1025E00080539D4FFC01C591D4919FB7611108C0E4
:1025F000F8948C91209582238C93888182230AC041
:10260000623051F4F8948C91322F309583238C935F
:102610008881822B888304C0F8948C91822B8C93C0
:102620009FBFDF91CF9108950F931F93CF93DF93B7
:102630001F92CDB7DEB7282F30E0F901E657FD4FE6
:102640008491F901E256FD4F1491F901EE54FD4FCA
:1026500004910023C9F0882321F069830E94B212FB
:102660006981E02FF0E0EE0FFF1FE053FD4FA591D1
:10267000B4919FB7F8948C91611103C01095812398
:1026800001C0812B8C939FBF0F90DF91CF911F9141
:102690000F910895CF93DF93282F30E0F901E6578B
:1026A000FD4F8491F901E256FD4FD491F901EE54AA
:1026B000FD4FC491CC2391F081110E94B212EC2FF6
:1026C000F0E0EE0FFF1FEA53FD4FA591B4912C915E
:1026D0002D2381E090E021F480E002C080E090E0D2
:1026E000DF91CF910895FC01818D228D90E0805C77
:1026F0009F4F821B91098F7399270895FC01918D3B
:10270000828D981731F0828DE80FF11D858D90E054
:1027100008958FEF9FEF0895FC01918D828D98179A
:1027200061F0828DDF01A80FB11D5D968C91928DB5
:102730009F5F9F73928F90E008958FEF9FEF0895B2
:1027400080E195E1892B49F080E090E0892B29F028
:102750000E94101581110C9400000895FC01848DD5
:10276000DF01A80FB11DA35ABF4F2C91848D90E0BB
:1027700001968F739927848FA689B7892C93A08996
:10278000B1898C9180648C93938D848D981306C04D
:102790000288F389E02D80818F7D80830895CF9317
:1027A000DF93EC01888D8823C9F0EA89FB89808159
:1027B00085FD05C0A889B9898C9186FD0FC00FB62B
:1027C00007FCF5CF808185FFF2CFA889B9898C916C
:1027D00085FFEDCFCE010E94AE13E7CFDF91CF9101
:1027E0000895CF92DF92FF920F931F93CF93DF93C1
:1027F0001F92CDB7DEB76C0181E0D60158968C935D
:1028000058975B969C915B975C968C915C9798131C
:1028100007C05096ED91FC915197808185FD2EC0A7
:10282000F601038D10E00F5F1F4F0F731127F02E7D
:10283000F601848DF81211C00FB607FCF9CFD6014E
:102840005096ED91FC915197808185FFF1CFC601A3
:1028500069830E94AE136981EBCF838DE80FF11D70
:10286000E35AFF4F6083D6015B960C935B975296B9
:10287000ED91FC915397808180620CC0D6015696F1
:10288000ED91FC91579760835096ED91FC91519793
:1028900080818064808381E090E00F90DF91CF9110
:1028A0001F910F91FF90DF90CF900895BF92CF922C
:1028B000DF92EF92FF92CF93DF93EC016A017B01ED
:1028C000B22EE889F98982E08083411581EE5807AC
:1028D00061057105A1F060E079E08DE390E0A7016A
:1028E00096010E9444182150310941095109569519
:1028F000479537952795211580E1380798F0E889A5
:10290000F989108260E874E88EE190E0A7019601F1
:102910000E944418215031094109510956954795A3
:1029200037952795EC85FD853083EE85FF852083DF
:10293000188EEC89FD89B082EA89FB8980818061EB
:102940008083EA89FB89808188608083EA89FB89AA
:10295000808180688083EA89FB8980818F7D808384
:10296000DF91CF91FF90EF90DF90CF90BF900895CF
:102970001F920F920FB60F9211242F938F939F9354
:10298000EF93FF93E091EC05F091ED058081E091EC
:10299000F205F091F30582FD12C090818091F5055A
:1029A0008F5F8F732091F605821751F0E091F50546
:1029B000F0E0E452FA4F958F8093F50501C08081D5
:1029C000FF91EF919F918F912F910F900FBE0F90DC
:1029D0001F9018951F920F920FB60F9211242F93EC
:1029E0003F934F935F936F937F938F939F93AF9397
:1029F000BF93EF93FF938CED95E00E94AE13FF9190
:102A0000EF91BF91AF919F918F917F916F915F9166
:102A10004F913F912F910F900FBE0F901F901895DF
:102A20008CED95E00E94731321E0892B09F420E0DE
:102A3000822F08951092DF051092DE0588EE93E054
:102A4000A0E0B0E08093E0059093E105A093E2055B
:102A5000B093E30580E993E09093DD058093DC0576
:102A600085EC90E09093E9058093E80584EC90E094
:102A70009093EB058093EA0580EC90E09093ED0550
:102A80008093EC0581EC90E09093EF058093EE0548
:102A900082EC90E09093F1058093F00586EC90E055
:102AA0009093F3058093F2051092F5051092F605C8
:102AB0001092F7051092F8050895CF92DF92EF92E9
:102AC000FF920F931F93CF93DF937C016A01EB0179
:102AD00000E010E00C151D0571F06991D701ED9132
:102AE000FC910190F081E02DC7010995892B19F027
:102AF0000F5F1F4FEFCFC801DF91CF911F910F9153
:102B0000FF90EF90DF90CF9008956115710581F0EF
:102B1000DB010D900020E9F7AD0141505109461B42
:102B2000570BDC01ED91FC910280F381E02D0994BB
:102B300080E090E00895EF92FF920F931F93CF9360
:102B4000DF938C017B01C0E0D0E0F701EC0FFD1FAB
:102B50006491662359F0F801A081B181ED91FC9157
:102B6000C8010995892B11F02196EFCFCE01DF9195
:102B7000CF911F910F91FF90EF9008950C948515C0
:102B8000DC01ED91FC910190F081E02D09946CE95C
:102B900073E00C9485150F931F93CF93DF93EC0193
:102BA0000E949B158C01CE010E94C715800F911FBA
:102BB000DF91CF911F910F9108950F931F93CF93A2
:102BC000DF93EC010E9485158C01CE010E94C71590
:102BD000800F911FDF91CF911F910F9108958F92D8
:102BE0009F92AF92BF92DF92EF92FF920F931F934B
:102BF000CF93DF93CDB7DEB7A1970FB6F894DEBFC2
:102C00000FBECDBF7C01F42FD52ECB0119A22230EF
:102C100008F42AE08E010F5D1F4F822E912CA12C0B
:102C2000B12C6F2F7D2DA50194010E944418F22F25
:102C3000D32ECA01015011096A3014F4E0E301C037
:102C4000E7E3E60FD801EC93232B242B252B49F740
:102C5000B801C7010E948515A1960FB6F894DEBF92
:102C60000FBECDBFDF91CF911F910F91FF90EF90DD
:102C7000DF90BF90AF909F908F900895CF92DF929A
:102C8000EF92FF920F931F93CF93DF93EC016A01B2
:102C90007B012115310579F4E881F9810190F081FA
:102CA000E02D642FDF91CF911F910F91FF90EF9056
:102CB000DF90CF9009942A303105E9F477FF1AC0EC
:102CC0006DE20E94C0158C0144275527BA014C19AA
:102CD0005D096E097F092AE0CE010E94EF15800F81
:102CE000911FDF91CF911F910F91FF90EF90DF9097
:102CF000CF9008952AE0B701A601CE01DF91CF91D0
:102D00001F910F91FF90EF90DF90CF900C94EF15F3
:102D10000F931F93CF93DF93EC019A01AB016627CA
:102D200057FD6095762F0E943E168C01CE010E94C1
:102D3000C715800F911FDF91CF911F910F910895BB
:102D4000FC01808191810C944D19CF93DF93EC01AC
:102D500088819981009711F00E944D19198218827B
:102D60001D821C821B821A82DF91CF9108950F93DE
:102D70001F93CF93DF93EC018B016F5F7F4F8881AF
:102D800099810E94DC19009731F0998388831B8315
:102D90000A8381E001C080E0DF91CF911F910F9104
:102DA0000895CF93DF93EC0188819981892B29F0D5
:102DB0008A819B818617970760F4CE010E94B7161F
:102DC000882341F08C819D81892B19F4E881F98158
:102DD000108281E0DF91CF910895EF92FF920F93DF
:102DE0001F93CF93DF93EC017B018A01BA010E940C
:102DF000D116811104C0CE010E94A51607C01D8303
:102E00000C83B701888199810E94D81ACE01DF9185
:102E1000CF911F910F91FF90EF900895FC011182C7
:102E2000108213821282158214826115710559F085
:102E3000FB0101900020E9F7AF0141505109461B09
:102E4000570B0C94ED160895CF93DF93EC016115A9
:102E5000710561F0FB0101900020E9F7AF014150DD
:102E60005109461B570B0E94ED1602C00E94A51681
:102E7000CE01DF91CF9108950F931F93CF93DF93EE
:102E8000CDB7DEB729970FB6F894DEBF0FBECDBF22
:102E90008C01862FF8011182108213821282158212
:102EA000148250E0BE016F5F7F4F90E00E94521B82
:102EB000BE016F5F7F4FC8010E94241729960FB68D
:102EC000F894DEBF0FBECDBFDF91CF911F910F9160
:102ED00008950F931F93CF93DF93CDB7DEB762971B
:102EE0000FB6F894DEBF0FBECDBF8C01CB01F80149
:102EF00011821082138212821582148250E0BE0168
:102F00006F5F7F4F0E94341BBE016F5F7F4FC80110
:102F10000E94241762960FB6F894DEBF0FBECDBF95
:102F2000DF91CF911F910F910895EF92FF920F9330
:102F30001F93CF93DF93EC017B010C811D81611501
:102F4000710511F480E016C04115510591F0040F90
:102F5000151FB8010E94D1168823A1F32881398159
:102F60008C819D81B701820F931F0E94D81A1D8307
:102F70000C8381E0DF91CF911F910F91FF90EF9033
:102F80000895FB0144815581608171810C949517EE
:102F9000CF93DF93EC01FB01448155816081718106
:102FA0000E949517811103C0CE010E94A516CE0183
:102FB000DF91CF910895CF93DF93EC0161157105F7
:102FC00069F0FB0101900020E9F7AF014150510980
:102FD000461B570B0E949517811103C0CE010E941A
:102FE000A516CE01DF91CF9108950F931F93CF9334
:102FF000DF93EB0141155105E9F02097D9F0FC0171
:103000006481758126173707A0F4621B730B8A0150
:10301000015011096017710708F48B01FC016081F0
:103020007181620F731FA801CE010E940B1BC00F9C
:10303000D11F1882DF91CF911F910F9108950895AC
:103040000E9477120E941F180E94A906C0EAD3E1CD
:103050000E94BE062097E1F30E94A013F9CF0895C5
:1030600097FB072E16F4009407D077FD09D00E9435
:10307000A11807FC05D03EF4909581959F4F0895C7
:10308000709561957F4F0895A1E21A2EAA1BBB1B74
:10309000FD010DC0AA1FBB1FEE1FFF1FA217B30724
:1030A000E407F50720F0A21BB30BE40BF50B661F3A
:1030B000771F881F991F1A9469F7609570958095FE
:1030C00090959B01AC01BD01CF010895052E97FBA2
:1030D0001EF400940E947D1857FD07D00E944418EA
:1030E00007FC03D04EF40C947D1850954095309514
:1030F00021953F4F4F4F5F4F089590958095709564
:1031000061957F4F8F4F9F4F0895EE0FFF1F0590E2
:10311000F491E02D0994A29FB001B39FC001A39F39
:10312000700D811D1124911DB29F700D811D112400
:10313000911D08950E948B18B7FF0895821B930B71
:103140000895AA1BBB1B51E107C0AA1FBB1FA617EE
:10315000B70710F0A61BB70B881F991F5A95A9F740
:1031600080959095BC01CD010895CF93DF93823077
:10317000910510F482E090E0E0917B06F0917C06EE
:1031800020E030E0A0E0B0E0309739F1408151819B
:1031900048175907B8F04817590771F4828193818D
:1031A000109729F013969C938E9312972CC09093AE
:1031B0007C0680937B0627C02115310531F042172C
:1031C000530718F0A901DB0101C0EF019A01BD010D
:1031D000DF010280F381E02DD7CF21153105F9F011
:1031E000281B390B2430310580F48A819B816115BD
:1031F000710521F0FB019383828304C090937C06C8
:1032000080937B06FE01329644C0FE01E20FF31F5D
:103210008193919322503109398328833AC02091B8
:10322000790630917A06232B41F4209102013091E6
:10323000030130937A0620937906209100013091A2
:1032400001012115310541F42DB73EB7409104012C
:1032500050910501241B350BE0917906F0917A0617
:10326000E217F307A0F42E1B3F0B2817390778F05D
:10327000AC014E5F5F4F2417350748F04E0F5F1FBC
:1032800050937A06409379068193919302C0E0E0CF
:10329000F0E0CF01DF91CF910895CF93DF930097B6
:1032A00009F487C0FC01329713821282C0917B0619
:1032B000D0917C06209781F420813181280F391F1D
:1032C0008091790690917A068217930779F5F093A9
:1032D0007A06E09379066DC0DE0120E030E0AE179B
:1032E000BF0750F412964D915C9113979D014115C3
:1032F000510509F1DA01F3CFB383A28340815181F3
:10330000840F951F8A179B0771F48D919C911197DB
:10331000840F951F02969183808312968D919C91C4
:103320001397938382832115310529F4F0937C064A
:10333000E0937B063EC0D9011396FC93EE9312975F
:103340004D915D91A40FB51FEA17FB0779F48081B9
:103350009181840F951F0296D90111969C938E93AB
:103360008281938113969C938E931297E0E0F0E014
:103370008A819B81009719F0FE01EC01F9CFCE0103
:10338000029628813981820F931F2091790630910E
:103390007A062817390769F4309729F410927C06C9
:1033A00010927B0602C013821282D0937A06C093D9
:1033B0007906DF91CF910895A0E0B0E0E2EEF9E167
:1033C0000C94A11BEC01CB01209719F40E94B518B5
:1033D000B8C0FE01E60FF71F9E0122503109E21727
:1033E000F30708F4ACC0D9010D911C911197061791
:1033F0001707B8F00530110508F49FC0A801445024
:1034000051094617570708F498C002501109061BC6
:10341000170B019311936D937C93CF010E944D196B
:103420008CC05B01A01AB10A4E01800E911EA091C2
:103430007B06B0917C06612C712C60E070E01097E7
:1034400009F449C0A815B905C9F5ED90FC9011978C
:10345000670142E0C40ED11CCA14DB0478F14701B5
:103460008A189B08640142E0C40ED11C1296BC90DD
:1034700012971396AC91B5E0CB16D10440F0B2820E
:10348000A38391828082D9018D939C9309C00E5FA2
:103490001F4F0E0D1F1DF90111830083EB2DFA2F15
:1034A0006115710531F0DB011396FC93EE931297D1
:1034B00044C0F0937C06E0937B063FC06D917C9105
:1034C00011976616770608F43B01BD0112960D9020
:1034D000BC91A02DB4CF6091790670917A066815E1
:1034E0007905E9F468167906D0F44091000150910D
:1034F00001014115510541F44DB75EB760910401DA
:1035000070910501461B570BE417F507C0F4F093C3
:103510007A06E0937906F901918380830EC00E94B8
:10352000B5187C01009759F0A801BE010E94C41A89
:10353000CE010E944D19C70104C0CE0102C080E037
:1035400090E0CDB7DEB7EEE00C94BD1BFC01882700
:103550009927E89421912032E9F3293010F02E3098
:10356000C8F32B3241F02D3239F4689404C00E9424
:103570004A1B820F911D219120532A30C0F31EF463
:10358000909581959F4F0895FB01DC0102C0019049
:103590000D9241505040D8F70895FC018191861753
:1035A00021F08823D9F7992708953197CF010895FD
:1035B000FB01DC0101900D920020E1F70895DC0190
:1035C000FB014150504058F049F001900D9200200D
:1035D000C1F7E61BF70B3197CF0108951C920190BC
:1035E0000020E9F7F6CFDC016C9161546A3108F0F4
:1035F00060526F596D93C1F70895FB01DC01415092
:10360000504030F08D910190801919F40020B9F7E5
:10361000881B990B0895FB01DC014150504048F094
:1036200001900D920020C9F701C01D9241505040F9
:10363000E0F70895FB0151915523A9F0BF01DC018A
:103640004D9145174111E1F759F4CD01019000204A
:1036500049F04D9140154111C9F3FB014111EFCFE4
:1036600081E090E0019708954532510520F4423001
:1036700010F00C943F1BFB011082CB010895BB2777
:103680004A3031F4992322F4BDE2909581959F4F01
:103690000C945E1B7AE0979F902D879F802D910D53
:1036A000112408954532510520F4423010F00C9455
:1036B0005D1BFB011082CB010895BB27FB01552741
:1036C000AA27880F991FAA1FA41710F0A41B83957F
:1036D0005051B9F7A05DAA3308F0A95DA1930097F6
:1036E00079F7B111B1931192CB010C948D1BF9991B
:1036F000FECF92BD81BDF89A992780B50895262FF7
:10370000F999FECF1FBA92BD81BD20BD0FB6F894C6
:10371000FA9AF99A0FBE01960895DC01FC01672F11
:1037200071917723E1F7329704C07C916D93708398
:103730006291AE17BF07C8F308952F923F924F9240
:103740005F926F927F928F929F92AF92BF92CF9231
:10375000DF92EF92FF920F931F93CF93DF93CDB73A
:10376000DEB7CA1BDB0B0FB6F894DEBF0FBECDBFB2
:1037700009942A88398848885F846E847D848C8483
:103780009B84AA84B984C884DF80EE80FD800C818C
:103790001B81AA81B981CE0FD11D0FB6F894DEBF6F
:1037A0000FBECDBFED01089512E0C6EFD2E004C018
:1037B000FE010E9487182296C83FD107C9F7F894E6
:0237C000FFCF39
:1037C20000007D06800073616E67686D0000000076
:1037D200003030303000581B0000581B0000581BCE
:1037E2000000581B000048652074686F6E67206BEC
:1037F200686F6920646F6E67207468616E68206309
:103802006F6E67003039333835393031303500006A
:10381200000000415445300041542B434D47463D82
:10382200310041542B434C49503D310041542B430C
:103832004D4744413D2244454C20414C4C22002BF3
:1038420043555344002B68746F0048652074686FB9
:103852006E672074756F6920646120746174002B37
:103862006874746700436169206461742074686FCE
:1038720069206769616E207468616E6820636F6E8B
:10388200673A200A0D005468696574206269200055
:103892003A200070687574200A0D002B616C6C6F01
:1038A200002B7462005461742074756F6920747502
:1038B20020646F6E67207472756F63206B68692075
:1038C20074756F692074687520636F6E67002B745E
:1038D200747462005472616E672074686169206E4C
:1038E200676F2072613A0A0D005F4F4E5F0A0D004A
:1038F2005F4F46465F0A0D002B747474670054686C
:103902006F69206769616E20636169206461743A3E
:103912000A0D00706875740A0D002B706173733A9A
:10392200002B6E756D3123002B6E756D3223002BCB
:103932006E756D322D2D23002B6B74746B004B68EA
:103942006F6E6720746865206B69656D20747261A3
:1039520020746169206B686F616E2C207675692016
:103962006C6F6E6720746875206C61692073617575
:10397200002B6E61707469656E004154442B2A31CC
:1039820030302A00426174206461752074756F6959
:1039920020747520646F6E670030303030004B65E4
:1039A2007420746875632074756F6920647520646F
:1039B2006F6E67000D0C0B0A09080706415445009B
:1039C20041540041542B4950523D002B43504D531A
:1039D2003A0053485554204F4B0000000000E609BE
:1039E2002A033603020000000000030DE80CF60C67
:1039F2000000FEFF0000E6093E002B434D47530046
:103A0200746F692063686F20677569206C656E68E2
:103A1200002B434D474C3A002B434D475200455231
:103A2200524F52002252454320554E5245414422A4
:103A3200002252454320524541442200000000002A
:103A42006F0F5D15DC0F4E0FC20FC10F000000009B
:103A5200F1135D1573138C137E13CF130D0A006ED1
:0E3A6200616E00696E66006F7666002E0000D1
:107E0000112484B714BE81FFF0D085E080938100F7
:107E100082E08093C00088E18093C10086E0809377
:107E2000C20080E18093C4008EE0C9D0259A86E02C
:107E300020E33CEF91E0309385002093840096BBD3
:107E4000B09BFECF1D9AA8958150A9F7CC24DD24C4
:107E500088248394B5E0AB2EA1E19A2EF3E0BF2EE7
:107E6000A2D0813461F49FD0082FAFD0023811F036
:107E7000013811F484E001C083E08DD089C08234E0
:107E800011F484E103C0853419F485E0A6D080C0E4
:107E9000853579F488D0E82EFF2485D0082F10E0AE
:107EA000102F00270E291F29000F111F8ED06801E7
:107EB0006FC0863521F484E090D080E0DECF843638
:107EC00009F040C070D06FD0082F6DD080E0C81688
:107ED00080E7D80618F4F601B7BEE895C0E0D1E017
:107EE00062D089930C17E1F7F0E0CF16F0E7DF06D8
:107EF00018F0F601B7BEE89568D007B600FCFDCFD4
:107F0000A601A0E0B1E02C9130E011968C91119780
:107F100090E0982F8827822B932B1296FA010C0160
:107F200087BEE89511244E5F5F4FF1E0A038BF0790
:107F300051F7F601A7BEE89507B600FCFDCF97BE46
:107F4000E89526C08437B1F42ED02DD0F82E2BD052
:107F50003CD0F601EF2C8F010F5F1F4F84911BD097
:107F6000EA94F801C1F70894C11CD11CFA94CF0C13
:107F7000D11C0EC0853739F428D08EE10CD085E9AC
:107F80000AD08FE07ACF813511F488E018D01DD067
:107F900080E101D065CF982F8091C00085FFFCCF94
:107FA0009093C60008958091C00087FFFCCF809118
:107FB000C00084FD01C0A8958091C6000895E0E648
:107FC000F0E098E1908380830895EDDF803219F02E
:107FD00088E0F5DFFFCF84E1DECF1F93182FE3DFCA
:107FE0001150E9F7F2DF1F91089580E0E8DFEE27F6
:047FF000FF270994CA
:027FFE00040479
:0400000300007E007B
:00000001FF
